{
  "_format": "hh-sol-artifact-1",
  "contractName": "DinePay",
  "sourceName": "contracts/DinePay.sol",
  "abi": [
    {
      "inputs": [],
      "stateMutability": "nonpayable",
      "type": "constructor"
    },
    {
      "inputs": [],
      "name": "AllReceiptsAlreadyWithdrawnError",
      "type": "error"
    },
    {
      "inputs": [],
      "name": "FailedPayWaiterError",
      "type": "error"
    },
    {
      "inputs": [],
      "name": "FailedWithdrawError",
      "type": "error"
    },
    {
      "inputs": [],
      "name": "InsufficientBalanceError",
      "type": "error"
    },
    {
      "inputs": [],
      "name": "InvalidAmountError",
      "type": "error"
    },
    {
      "inputs": [],
      "name": "InvalidPercentageError",
      "type": "error"
    },
    {
      "inputs": [],
      "name": "NotOwnerError",
      "type": "error"
    },
    {
      "inputs": [],
      "name": "ReceiptNotFoundError",
      "type": "error"
    },
    {
      "inputs": [],
      "name": "WaiterAccountNotFoundError",
      "type": "error"
    },
    {
      "inputs": [],
      "name": "getBalance",
      "outputs": [
        {
          "internalType": "uint256",
          "name": "",
          "type": "uint256"
        }
      ],
      "stateMutability": "view",
      "type": "function"
    },
    {
      "inputs": [],
      "name": "getReceipts",
      "outputs": [
        {
          "components": [
            {
              "internalType": "uint256",
              "name": "id",
              "type": "uint256"
            },
            {
              "internalType": "address",
              "name": "customerAccount",
              "type": "address"
            },
            {
              "internalType": "address",
              "name": "waiterAccount",
              "type": "address"
            },
            {
              "internalType": "uint256",
              "name": "totalAmount",
              "type": "uint256"
            },
            {
              "internalType": "uint256",
              "name": "tipPercentage",
              "type": "uint256"
            },
            {
              "internalType": "bool",
              "name": "isWithdrawn",
              "type": "bool"
            },
            {
              "internalType": "uint256",
              "name": "createdAt",
              "type": "uint256"
            }
          ],
          "internalType": "struct DinePay.Receipt[]",
          "name": "",
          "type": "tuple[]"
        }
      ],
      "stateMutability": "view",
      "type": "function"
    },
    {
      "inputs": [
        {
          "internalType": "address",
          "name": "_waiterAccount",
          "type": "address"
        }
      ],
      "name": "getReceiptsByWaiter",
      "outputs": [
        {
          "components": [
            {
              "internalType": "uint256",
              "name": "id",
              "type": "uint256"
            },
            {
              "internalType": "address",
              "name": "customerAccount",
              "type": "address"
            },
            {
              "internalType": "address",
              "name": "waiterAccount",
              "type": "address"
            },
            {
              "internalType": "uint256",
              "name": "totalAmount",
              "type": "uint256"
            },
            {
              "internalType": "uint256",
              "name": "tipPercentage",
              "type": "uint256"
            },
            {
              "internalType": "bool",
              "name": "isWithdrawn",
              "type": "bool"
            },
            {
              "internalType": "uint256",
              "name": "createdAt",
              "type": "uint256"
            }
          ],
          "internalType": "struct DinePay.Receipt[]",
          "name": "",
          "type": "tuple[]"
        }
      ],
      "stateMutability": "view",
      "type": "function"
    },
    {
      "inputs": [
        {
          "internalType": "address",
          "name": "_waiterAccount",
          "type": "address"
        }
      ],
      "name": "getWaiterDividend",
      "outputs": [
        {
          "internalType": "uint256",
          "name": "",
          "type": "uint256"
        }
      ],
      "stateMutability": "view",
      "type": "function"
    },
    {
      "inputs": [],
      "name": "payAllWaiters",
      "outputs": [],
      "stateMutability": "payable",
      "type": "function"
    },
    {
      "inputs": [
        {
          "internalType": "address",
          "name": "_waiterAccount",
          "type": "address"
        }
      ],
      "name": "payWaiter",
      "outputs": [],
      "stateMutability": "payable",
      "type": "function"
    },
    {
      "inputs": [
        {
          "internalType": "uint256",
          "name": "_receiptId",
          "type": "uint256"
        }
      ],
      "name": "payWaiterReceipt",
      "outputs": [],
      "stateMutability": "payable",
      "type": "function"
    },
    {
      "inputs": [
        {
          "internalType": "address",
          "name": "_waiterAccount",
          "type": "address"
        },
        {
          "internalType": "uint256",
          "name": "_tipPercentage",
          "type": "uint256"
        }
      ],
      "name": "registerReceipt",
      "outputs": [],
      "stateMutability": "payable",
      "type": "function"
    },
    {
      "inputs": [],
      "name": "withdraw",
      "outputs": [],
      "stateMutability": "payable",
      "type": "function"
    }
  ],
  "bytecode": "0x608060405234801561001057600080fd5b5033600160006101000a81548173ffffffffffffffffffffffffffffffffffffffff021916908373ffffffffffffffffffffffffffffffffffffffff16021790555060008081905550612663806100686000396000f3fe6080604052600436106100865760003560e01c8063785975221161005957806378597522146100e65780638a62b28f1461011157806392e63a931461012d578063c87539e214610149578063da90635a1461018657610086565b806312065fe01461008b5780633ccfd60b146100b65780635bac83ca146100c05780636c5d7644146100ca575b600080fd5b34801561009757600080fd5b506100a06101c3565b6040516100ad919061212c565b60405180910390f35b6100be6101cb565b005b6100c86103c3565b005b6100e460048036038101906100df91906121aa565b6107d4565b005b3480156100f257600080fd5b506100fb610ac1565b604051610108919061234d565b60405180910390f35b61012b6004803603810190610126919061239b565b610c0f565b005b610147600480360381019061014291906123db565b610e75565b005b34801561015557600080fd5b50610170600480360381019061016b91906121aa565b6112fc565b60405161017d919061234d565b60405180910390f35b34801561019257600080fd5b506101ad60048036038101906101a891906121aa565b61187e565b6040516101ba919061212c565b60405180910390f35b600047905090565b600160009054906101000a900473ffffffffffffffffffffffffffffffffffffffff1673ffffffffffffffffffffffffffffffffffffffff163373ffffffffffffffffffffffffffffffffffffffff1614610252576040517f74a2152700000000000000000000000000000000000000000000000000000000815260040160405180910390fd5b600060038054905003610291576040517ff994174e00000000000000000000000000000000000000000000000000000000815260040160405180910390fd5b600061029b611a93565b905060006102a76101c3565b905060008114806102b757508181105b156102ee576040517f384d3c5900000000000000000000000000000000000000000000000000000000815260040160405180910390fd5b6000600160009054906101000a900473ffffffffffffffffffffffffffffffffffffffff1673ffffffffffffffffffffffffffffffffffffffff1683836103359190612437565b6040516103419061249c565b60006040518083038185875af1925050503d806000811461037e576040519150601f19603f3d011682016040523d82523d6000602084013e610383565b606091505b50509050806103be576040517f16afd56f00000000000000000000000000000000000000000000000000000000815260040160405180910390fd5b505050565b600160009054906101000a900473ffffffffffffffffffffffffffffffffffffffff1673ffffffffffffffffffffffffffffffffffffffff163373ffffffffffffffffffffffffffffffffffffffff161461044a576040517f74a2152700000000000000000000000000000000000000000000000000000000815260040160405180910390fd5b600060038054905003610489576040517ff994174e00000000000000000000000000000000000000000000000000000000815260040160405180910390fd5b60006001905060006003805480602002602001604051908101604052809291908181526020016000905b828210156105d457838290600052602060002090600702016040518060e0016040529081600082015481526020016001820160009054906101000a900473ffffffffffffffffffffffffffffffffffffffff1673ffffffffffffffffffffffffffffffffffffffff1673ffffffffffffffffffffffffffffffffffffffff1681526020016002820160009054906101000a900473ffffffffffffffffffffffffffffffffffffffff1673ffffffffffffffffffffffffffffffffffffffff1673ffffffffffffffffffffffffffffffffffffffff16815260200160038201548152602001600482015481526020016005820160009054906101000a900460ff16151515158152602001600682015481525050815260200190600101906104b3565b50505050905060005b815181101561061f578181815181106105f9576105f86124b1565b5b602002602001015160a00151610612576000925061061f565b80806001019150506105dd565b508115610658576040517fc9ff52f500000000000000000000000000000000000000000000000000000000815260040160405180910390fd5b600060028054806020026020016040519081016040528092919081815260200182805480156106dc57602002820191906000526020600020905b8160009054906101000a900473ffffffffffffffffffffffffffffffffffffffff1673ffffffffffffffffffffffffffffffffffffffff1681526020019060010190808311610692575b5050505050905060005b81518110156107ce576000828281518110610704576107036124b1565b5b60200260200101519050600061071982611b77565b905060008273ffffffffffffffffffffffffffffffffffffffff16826040516107419061249c565b60006040518083038185875af1925050503d806000811461077e576040519150601f19603f3d011682016040523d82523d6000602084013e610783565b606091505b50509050806107be576040517fa379c46100000000000000000000000000000000000000000000000000000000815260040160405180910390fd5b50505080806001019150506106e6565b50505050565b600160009054906101000a900473ffffffffffffffffffffffffffffffffffffffff1673ffffffffffffffffffffffffffffffffffffffff163373ffffffffffffffffffffffffffffffffffffffff161461085b576040517f74a2152700000000000000000000000000000000000000000000000000000000815260040160405180910390fd5b60006003805490500361089a576040517ff994174e00000000000000000000000000000000000000000000000000000000815260040160405180910390fd5b806000600280548060200260200160405190810160405280929190818152602001828054801561091f57602002820191906000526020600020905b8160009054906101000a900473ffffffffffffffffffffffffffffffffffffffff1673ffffffffffffffffffffffffffffffffffffffff16815260200190600101908083116108d5575b505050505090506000815103610961576040517f53f5bf0300000000000000000000000000000000000000000000000000000000815260040160405180910390fd5b6000805b82518110156109d1578373ffffffffffffffffffffffffffffffffffffffff16838281518110610998576109976124b1565b5b602002602001015173ffffffffffffffffffffffffffffffffffffffff16036109c457600191506109d1565b8080600101915050610965565b5080610a09576040517f53f5bf0300000000000000000000000000000000000000000000000000000000815260040160405180910390fd5b6000610a1485611b77565b905060008573ffffffffffffffffffffffffffffffffffffffff1682604051610a3c9061249c565b60006040518083038185875af1925050503d8060008114610a79576040519150601f19603f3d011682016040523d82523d6000602084013e610a7e565b606091505b5050905080610ab9576040517fa379c46100000000000000000000000000000000000000000000000000000000815260040160405180910390fd5b505050505050565b60606003805480602002602001604051908101604052809291908181526020016000905b82821015610c0657838290600052602060002090600702016040518060e0016040529081600082015481526020016001820160009054906101000a900473ffffffffffffffffffffffffffffffffffffffff1673ffffffffffffffffffffffffffffffffffffffff1673ffffffffffffffffffffffffffffffffffffffff1681526020016002820160009054906101000a900473ffffffffffffffffffffffffffffffffffffffff1673ffffffffffffffffffffffffffffffffffffffff1673ffffffffffffffffffffffffffffffffffffffff16815260200160038201548152602001600482015481526020016005820160009054906101000a900460ff1615151515815260200160068201548152505081526020019060010190610ae5565b50505050905090565b60003403610c49576040517f7a8d642800000000000000000000000000000000000000000000000000000000815260040160405180910390fd5b600081111580610c595750606481115b15610c90576040517f42732e3700000000000000000000000000000000000000000000000000000000815260040160405180910390fd5b60036040518060e0016040528060005481526020013373ffffffffffffffffffffffffffffffffffffffff1681526020018473ffffffffffffffffffffffffffffffffffffffff1681526020013481526020018381526020016000151581526020014281525090806001815401808255809150506001900390600052602060002090600702016000909190919091506000820151816000015560208201518160010160006101000a81548173ffffffffffffffffffffffffffffffffffffffff021916908373ffffffffffffffffffffffffffffffffffffffff16021790555060408201518160020160006101000a81548173ffffffffffffffffffffffffffffffffffffffff021916908373ffffffffffffffffffffffffffffffffffffffff160217905550606082015181600301556080820151816004015560a08201518160050160006101000a81548160ff02191690831515021790555060c0820151816006015550506002829080600181540180825580915050600190039060005260206000200160009091909190916101000a81548173ffffffffffffffffffffffffffffffffffffffff021916908373ffffffffffffffffffffffffffffffffffffffff160217905550600080815480929190610e6c906124e0565b91905055505050565b600160009054906101000a900473ffffffffffffffffffffffffffffffffffffffff1673ffffffffffffffffffffffffffffffffffffffff163373ffffffffffffffffffffffffffffffffffffffff1614610efc576040517f74a2152700000000000000000000000000000000000000000000000000000000815260040160405180910390fd5b600060038054905003610f3b576040517ff994174e00000000000000000000000000000000000000000000000000000000815260040160405180910390fd5b60006003805480602002602001604051908101604052809291908181526020016000905b8282101561108057838290600052602060002090600702016040518060e0016040529081600082015481526020016001820160009054906101000a900473ffffffffffffffffffffffffffffffffffffffff1673ffffffffffffffffffffffffffffffffffffffff1673ffffffffffffffffffffffffffffffffffffffff1681526020016002820160009054906101000a900473ffffffffffffffffffffffffffffffffffffffff1673ffffffffffffffffffffffffffffffffffffffff1673ffffffffffffffffffffffffffffffffffffffff16815260200160038201548152602001600482015481526020016005820160009054906101000a900460ff1615151515815260200160068201548152505081526020019060010190610f5f565b50505050905060005b81518110156112c65760008282815181106110a7576110a66124b1565b5b60200260200101519050838383815181106110c5576110c46124b1565b5b602002602001015160000151036112b85760006064826080015183606001516110ee9190612528565b6110f89190612599565b90506000826040015173ffffffffffffffffffffffffffffffffffffffff16826040516111249061249c565b60006040518083038185875af1925050503d8060008114611161576040519150601f19603f3d011682016040523d82523d6000602084013e611166565b606091505b50509050806111a1576040517fa379c46100000000000000000000000000000000000000000000000000000000815260040160405180910390fd5b60018360a001901515908115158152505082600385815481106111c7576111c66124b1565b5b90600052602060002090600702016000820151816000015560208201518160010160006101000a81548173ffffffffffffffffffffffffffffffffffffffff021916908373ffffffffffffffffffffffffffffffffffffffff16021790555060408201518160020160006101000a81548173ffffffffffffffffffffffffffffffffffffffff021916908373ffffffffffffffffffffffffffffffffffffffff160217905550606082015181600301556080820151816004015560a08201518160050160006101000a81548160ff02191690831515021790555060c0820151816006015590505050505050506112f9565b508080600101915050611089565b506040517ff994174e00000000000000000000000000000000000000000000000000000000815260040160405180910390fd5b50565b6060816000600280548060200260200160405190810160405280929190818152602001828054801561138357602002820191906000526020600020905b8160009054906101000a900473ffffffffffffffffffffffffffffffffffffffff1673ffffffffffffffffffffffffffffffffffffffff1681526020019060010190808311611339575b5050505050905060008151036113c5576040517f53f5bf0300000000000000000000000000000000000000000000000000000000815260040160405180910390fd5b6000805b8251811015611435578373ffffffffffffffffffffffffffffffffffffffff168382815181106113fc576113fb6124b1565b5b602002602001015173ffffffffffffffffffffffffffffffffffffffff16036114285760019150611435565b80806001019150506113c9565b508061146d576040517f53f5bf0300000000000000000000000000000000000000000000000000000000815260040160405180910390fd5b6000600380549050036114ac576040517ff994174e00000000000000000000000000000000000000000000000000000000815260040160405180910390fd5b6000806003805480602002602001604051908101604052809291908181526020016000905b828210156115f257838290600052602060002090600702016040518060e0016040529081600082015481526020016001820160009054906101000a900473ffffffffffffffffffffffffffffffffffffffff1673ffffffffffffffffffffffffffffffffffffffff1673ffffffffffffffffffffffffffffffffffffffff1681526020016002820160009054906101000a900473ffffffffffffffffffffffffffffffffffffffff1673ffffffffffffffffffffffffffffffffffffffff1673ffffffffffffffffffffffffffffffffffffffff16815260200160038201548152602001600482015481526020016005820160009054906101000a900460ff16151515158152602001600682015481525050815260200190600101906114d1565b50505050905060005b8151811015611671578773ffffffffffffffffffffffffffffffffffffffff1682828151811061162e5761162d6124b1565b5b60200260200101516040015173ffffffffffffffffffffffffffffffffffffffff1603611664578280611660906124e0565b9350505b80806001019150506115fb565b5060008267ffffffffffffffff81111561168e5761168d6125ca565b5b6040519080825280602002602001820160405280156116c757816020015b6116b4611e94565b8152602001906001900390816116ac5790505b5090506000805b60038054905081101561186e576000600382815481106116f1576116f06124b1565b5b90600052602060002090600702016040518060e0016040529081600082015481526020016001820160009054906101000a900473ffffffffffffffffffffffffffffffffffffffff1673ffffffffffffffffffffffffffffffffffffffff1673ffffffffffffffffffffffffffffffffffffffff1681526020016002820160009054906101000a900473ffffffffffffffffffffffffffffffffffffffff1673ffffffffffffffffffffffffffffffffffffffff1673ffffffffffffffffffffffffffffffffffffffff16815260200160038201548152602001600482015481526020016005820160009054906101000a900460ff1615151515815260200160068201548152505090508a73ffffffffffffffffffffffffffffffffffffffff16816040015173ffffffffffffffffffffffffffffffffffffffff16036118605780848481518110611846576118456124b1565b5b6020026020010181905250828061185c906124e0565b9350505b5080806001019150506116ce565b5081975050505050505050919050565b6000806000905060006003805480602002602001604051908101604052809291908181526020016000905b828210156119ca57838290600052602060002090600702016040518060e0016040529081600082015481526020016001820160009054906101000a900473ffffffffffffffffffffffffffffffffffffffff1673ffffffffffffffffffffffffffffffffffffffff1673ffffffffffffffffffffffffffffffffffffffff1681526020016002820160009054906101000a900473ffffffffffffffffffffffffffffffffffffffff1673ffffffffffffffffffffffffffffffffffffffff1673ffffffffffffffffffffffffffffffffffffffff16815260200160038201548152602001600482015481526020016005820160009054906101000a900460ff16151515158152602001600682015481525050815260200190600101906118a9565b50505050905060005b8151811015611a885760008282815181106119f1576119f06124b1565b5b602002602001015190508060a0015180611a3b57508573ffffffffffffffffffffffffffffffffffffffff16816040015173ffffffffffffffffffffffffffffffffffffffff1614155b15611a465750611a7b565b6000606482608001518360600151611a5e9190612528565b611a689190612599565b90508085611a7691906125f9565b945050505b80806001019150506119d3565b508192505050919050565b6000806000905060006002805480602002602001604051908101604052809291908181526020018280548015611b1e57602002820191906000526020600020905b8160009054906101000a900473ffffffffffffffffffffffffffffffffffffffff1673ffffffffffffffffffffffffffffffffffffffff1681526020019060010190808311611ad4575b5050505050905060005b8151811015611b6e57611b54828281518110611b4757611b466124b1565b5b6020026020010151611b77565b83611b5f91906125f9565b92508080600101915050611b28565b50819250505090565b6000806000905060006003905060005b8180549050811015611e77576000828281548110611ba857611ba76124b1565b5b90600052602060002090600702016040518060e0016040529081600082015481526020016001820160009054906101000a900473ffffffffffffffffffffffffffffffffffffffff1673ffffffffffffffffffffffffffffffffffffffff1673ffffffffffffffffffffffffffffffffffffffff1681526020016002820160009054906101000a900473ffffffffffffffffffffffffffffffffffffffff1673ffffffffffffffffffffffffffffffffffffffff1673ffffffffffffffffffffffffffffffffffffffff16815260200160038201548152602001600482015481526020016005820160009054906101000a900460ff1615151515815260200160068201548152505090508060a0015180611cf257508573ffffffffffffffffffffffffffffffffffffffff16816040015173ffffffffffffffffffffffffffffffffffffffff1614155b15611cfd5750611e6a565b60006064808360800151611d1191906125f9565b8360600151611d209190612599565b611d2a9190612528565b905060006064836080015183611d409190612528565b611d4a9190612599565b90508086611d5891906125f9565b955060018360a001901515908115158152505082858581548110611d7f57611d7e6124b1565b5b90600052602060002090600702016000820151816000015560208201518160010160006101000a81548173ffffffffffffffffffffffffffffffffffffffff021916908373ffffffffffffffffffffffffffffffffffffffff16021790555060408201518160020160006101000a81548173ffffffffffffffffffffffffffffffffffffffff021916908373ffffffffffffffffffffffffffffffffffffffff160217905550606082015181600301556080820151816004015560a08201518160050160006101000a81548160ff02191690831515021790555060c082015181600601559050505050505b8080600101915050611b87565b50806003908054611e89929190611eff565b508192505050919050565b6040518060e0016040528060008152602001600073ffffffffffffffffffffffffffffffffffffffff168152602001600073ffffffffffffffffffffffffffffffffffffffff1681526020016000815260200160008152602001600015158152602001600081525090565b8280548282559060005260206000209060070281019282156120695760005260206000209160070282015b82811115612068578282600082015481600001556001820160009054906101000a900473ffffffffffffffffffffffffffffffffffffffff168160010160006101000a81548173ffffffffffffffffffffffffffffffffffffffff021916908373ffffffffffffffffffffffffffffffffffffffff1602179055506002820160009054906101000a900473ffffffffffffffffffffffffffffffffffffffff168160020160006101000a81548173ffffffffffffffffffffffffffffffffffffffff021916908373ffffffffffffffffffffffffffffffffffffffff16021790555060038201548160030155600482015481600401556005820160009054906101000a900460ff168160050160006101000a81548160ff02191690831515021790555060068201548160060155505091600701919060070190611f2a565b5b509050612076919061207a565b5090565b5b8082111561210f576000808201600090556001820160006101000a81549073ffffffffffffffffffffffffffffffffffffffff02191690556002820160006101000a81549073ffffffffffffffffffffffffffffffffffffffff0219169055600382016000905560048201600090556005820160006101000a81549060ff021916905560068201600090555060070161207b565b5090565b6000819050919050565b61212681612113565b82525050565b6000602082019050612141600083018461211d565b92915050565b600080fd5b600073ffffffffffffffffffffffffffffffffffffffff82169050919050565b60006121778261214c565b9050919050565b6121878161216c565b811461219257600080fd5b50565b6000813590506121a48161217e565b92915050565b6000602082840312156121c0576121bf612147565b5b60006121ce84828501612195565b91505092915050565b600081519050919050565b600082825260208201905092915050565b6000819050602082019050919050565b61220c81612113565b82525050565b61221b8161216c565b82525050565b60008115159050919050565b61223681612221565b82525050565b60e0820160008201516122526000850182612203565b5060208201516122656020850182612212565b5060408201516122786040850182612212565b50606082015161228b6060850182612203565b50608082015161229e6080850182612203565b5060a08201516122b160a085018261222d565b5060c08201516122c460c0850182612203565b50505050565b60006122d6838361223c565b60e08301905092915050565b6000602082019050919050565b60006122fa826121d7565b61230481856121e2565b935061230f836121f3565b8060005b8381101561234057815161232788826122ca565b9750612332836122e2565b925050600181019050612313565b5085935050505092915050565b6000602082019050818103600083015261236781846122ef565b905092915050565b61237881612113565b811461238357600080fd5b50565b6000813590506123958161236f565b92915050565b600080604083850312156123b2576123b1612147565b5b60006123c085828601612195565b92505060206123d185828601612386565b9150509250929050565b6000602082840312156123f1576123f0612147565b5b60006123ff84828501612386565b91505092915050565b7f4e487b7100000000000000000000000000000000000000000000000000000000600052601160045260246000fd5b600061244282612113565b915061244d83612113565b925082820390508181111561246557612464612408565b5b92915050565b600081905092915050565b50565b600061248660008361246b565b915061249182612476565b600082019050919050565b60006124a782612479565b9150819050919050565b7f4e487b7100000000000000000000000000000000000000000000000000000000600052603260045260246000fd5b60006124eb82612113565b91507fffffffffffffffffffffffffffffffffffffffffffffffffffffffffffffffff820361251d5761251c612408565b5b600182019050919050565b600061253382612113565b915061253e83612113565b925082820261254c81612113565b9150828204841483151761256357612562612408565b5b5092915050565b7f4e487b7100000000000000000000000000000000000000000000000000000000600052601260045260246000fd5b60006125a482612113565b91506125af83612113565b9250826125bf576125be61256a565b5b828204905092915050565b7f4e487b7100000000000000000000000000000000000000000000000000000000600052604160045260246000fd5b600061260482612113565b915061260f83612113565b925082820190508082111561262757612626612408565b5b9291505056fea26469706673582212201d49e39f304da0de0f1abeea9ccb65ab9d326a96b55c1f6968bd0db40d8a694064736f6c63430008180033",
  "linkReferences": {},
  "deployedLinkReferences": {}
}